{
  "contractName": "FarmerRole",
  "abi": [
    {
      "inputs": [],
      "stateMutability": "nonpayable",
      "type": "constructor"
    },
    {
      "anonymous": false,
      "inputs": [
        {
          "indexed": true,
          "internalType": "address",
          "name": "account",
          "type": "address"
        }
      ],
      "name": "FarmerAdded",
      "type": "event"
    },
    {
      "anonymous": false,
      "inputs": [
        {
          "indexed": true,
          "internalType": "address",
          "name": "account",
          "type": "address"
        }
      ],
      "name": "FarmerRemoved",
      "type": "event"
    },
    {
      "inputs": [
        {
          "internalType": "address",
          "name": "account",
          "type": "address"
        }
      ],
      "name": "isFarmer",
      "outputs": [
        {
          "internalType": "bool",
          "name": "",
          "type": "bool"
        }
      ],
      "stateMutability": "view",
      "type": "function",
      "constant": true
    },
    {
      "inputs": [
        {
          "internalType": "address",
          "name": "account",
          "type": "address"
        }
      ],
      "name": "addFarmer",
      "outputs": [],
      "stateMutability": "nonpayable",
      "type": "function"
    },
    {
      "inputs": [],
      "name": "renounceFarmer",
      "outputs": [],
      "stateMutability": "nonpayable",
      "type": "function"
    }
  ],
  "bytecode": "0x608060405234801561001057600080fd5b506100203361002560201b60201c565b6101c7565b61003d81600061008360201b6101181790919060201c565b8073ffffffffffffffffffffffffffffffffffffffff167f2e0ded4123377a3c2bc9a26f1717655a129e2f20752924d42e730ec89c83dbd060405160405180910390a250565b600073ffffffffffffffffffffffffffffffffffffffff168173ffffffffffffffffffffffffffffffffffffffff1614156100bd57600080fd5b6100cd828261013560201b60201c565b156100d757600080fd5b60018260000160008373ffffffffffffffffffffffffffffffffffffffff1673ffffffffffffffffffffffffffffffffffffffff16815260200190815260200160002060006101000a81548160ff0219169083151502179055505050565b60008073ffffffffffffffffffffffffffffffffffffffff168273ffffffffffffffffffffffffffffffffffffffff16141561017057600080fd5b8260000160008373ffffffffffffffffffffffffffffffffffffffff1673ffffffffffffffffffffffffffffffffffffffff16815260200190815260200160002060009054906101000a900460ff16905092915050565b61052e806101d66000396000f3fe608060405234801561001057600080fd5b50600436106100415760003560e01c806380c3f96d1461004657806380fc0ce414610062578063b94290691461006c575b600080fd5b610060600480360381019061005b91906103ca565b61009c565b005b61006a6100f0565b005b610086600480360381019061008191906103ca565b6100fb565b6040516100939190610429565b60405180910390f35b6100a5336100fb565b6100e4576040517f08c379a00000000000000000000000000000000000000000000000000000000081526004016100db90610444565b60405180910390fd5b6100ed816101c4565b50565b6100f93361021e565b565b600061011182600061027890919063ffffffff16565b9050919050565b600073ffffffffffffffffffffffffffffffffffffffff168173ffffffffffffffffffffffffffffffffffffffff16141561015257600080fd5b61015c8282610278565b1561016657600080fd5b60018260000160008373ffffffffffffffffffffffffffffffffffffffff1673ffffffffffffffffffffffffffffffffffffffff16815260200190815260200160002060006101000a81548160ff0219169083151502179055505050565b6101d881600061011890919063ffffffff16565b8073ffffffffffffffffffffffffffffffffffffffff167f2e0ded4123377a3c2bc9a26f1717655a129e2f20752924d42e730ec89c83dbd060405160405180910390a250565b61023281600061030a90919063ffffffff16565b8073ffffffffffffffffffffffffffffffffffffffff167fa5e0f060af304ab17dd418c7927e3da3ae7868189bf387aee09ab179ccc572f260405160405180910390a250565b60008073ffffffffffffffffffffffffffffffffffffffff168273ffffffffffffffffffffffffffffffffffffffff1614156102b357600080fd5b8260000160008373ffffffffffffffffffffffffffffffffffffffff1673ffffffffffffffffffffffffffffffffffffffff16815260200190815260200160002060009054906101000a900460ff16905092915050565b600073ffffffffffffffffffffffffffffffffffffffff168173ffffffffffffffffffffffffffffffffffffffff16141561034457600080fd5b61034e8282610278565b61035757600080fd5b60008260000160008373ffffffffffffffffffffffffffffffffffffffff1673ffffffffffffffffffffffffffffffffffffffff16815260200190815260200160002060006101000a81548160ff0219169083151502179055505050565b6000813590506103c4816104e1565b92915050565b6000602082840312156103e0576103df6104b3565b5b60006103ee848285016103b5565b91505092915050565b61040081610487565b82525050565b6000610413601f83610464565b915061041e826104b8565b602082019050919050565b600060208201905061043e60008301846103f7565b92915050565b6000602082019050818103600083015261045d81610406565b9050919050565b600082825260208201905092915050565b600061048082610493565b9050919050565b60008115159050919050565b600073ffffffffffffffffffffffffffffffffffffffff82169050919050565b600080fd5b7f54686973206163636f756e7420686173206e6f204661726d657220526f6c6500600082015250565b6104ea81610475565b81146104f557600080fd5b5056fea2646970667358221220ade3a077ad1d8192c22be161d7a17da5b36ee2dada3e850a66f264051f97a92864736f6c63430008060033",
  "immutableReferences": {},
  "source": "// SPDX-License-Identifier: MIT\npragma solidity >=0.7.0 <0.9.0;\n\n// Import the library 'Roles'\nimport \"./Roles.sol\";\n\n// Define a contract 'FarmerRole' to manage this role - add, remove, check\ncontract FarmerRole {\n    using Roles for Roles.Role;\n\n    // Define 2 events, one for Adding, and other for Removing\n    event FarmerAdded(address indexed account);\n    event FarmerRemoved(address indexed account);\n\n    // Define a struct 'farmers' by inheriting from 'Roles' library, struct Role\n    Roles.Role private farmers;\n\n    // In the constructor make the address that deploys this contract the 1st farmer\n    constructor() {\n        _addFarmer(msg.sender);\n    }\n\n    // Define a modifier that checks to see if msg.sender has the appropriate role\n    modifier onlyFarmer() {\n        require(isFarmer(msg.sender), \"This account has no Farmer Role\");\n        _;\n    }\n\n    // Define a function 'isFarmer' to check this role\n    function isFarmer(address account) public view returns (bool) {\n        return farmers.has(account);\n    }\n\n    // Define a function 'addFarmer' that adds this role\n    function addFarmer(address account) public onlyFarmer {\n        _addFarmer(account);\n    }\n\n    // Define a function 'renounceFarmer' to renounce this role\n    function renounceFarmer() public {\n        _removeFarmer(msg.sender);\n    }\n\n    // Define an internal function '_addFarmer' to add this role, called by 'addFarmer'\n    function _addFarmer(address account) internal {\n        farmers.add(account);\n        emit FarmerAdded(account);\n    }\n\n    // Define an internal function '_removeFarmer' to remove this role, called by 'removeFarmer'\n    function _removeFarmer(address account) internal {\n        farmers.remove(account);\n        emit FarmerRemoved(account);\n    }\n}\n",
  "sourcePath": "/Users/josephdeangeloi/Documents/Udacity/Blockchain Developer/Blockchain_Supply_Chain/project-6/contracts/coffeeaccesscontrol/FarmerRole.sol",
  "compiler": {
    "name": "solc",
    "version": "0.8.6+commit.11564f7e.Emscripten.clang"
  },
  "schemaVersion": "3.4.3",
  "updatedAt": "2022-02-21T16:31:06.106Z",
  "networkType": "ethereum",
  "devdoc": {
    "kind": "dev",
    "methods": {},
    "version": 1
  },
  "userdoc": {
    "kind": "user",
    "methods": {},
    "version": 1
  }
}